:100000000200037B007C0012007A12009612005B53
:10001000B402060CBC3C027C00B405061CBCFF020A
:0F0020007C3BB403060BBB3C027B00B406061B03
:10002F00BBFF027B3BB4100612005F12003F80C87B
:0F003F0075B00F75B01F75B02F75B03F120096DA
:10004E0012007A12009612005BB409E522E590F4D4
:0E005E002212007A12009B1BBBFF0B7B3B1C87
:0F006C00BCFF057C007B0022115BB420E622EB79
:10007B0075F00A8485F0B04410F5B0EC75F00A8485
:10008B004430F5B0E5F04420F5B0227D010200A12B
:0D009B007FB97ECD7D04DFFEDEFCDDFA22A4
:00000001FF
